:020000040800F2
:10000000900A002091010008512F000829280008BB
:100010004D2F00086D060008C530000800000000E4
:10002000000000000000000000000000592F000840
:100030007106000800000000552F00085D2F000821
:10004000AB010008AB010008AB010008AB010008E0
:10005000AB010008AB010008AB010008AB010008D0
:10006000AB010008AB010008AB010008AB010008C0
:10007000AB010008AB010008AB010008AB010008B0
:10008000AB010008AB010008AB010008AB010008A0
:10009000AB010008AB010008AB010008AB01000890
:1000A000AB010008AB010008AB010008AB01000880
:1000B000652F00087D2F00089D2F0008AB01000868
:1000C000AB010008AB010008AB010008AB01000860
:1000D000AB010008AB010008AB010008AB01000850
:1000E000AB010008AB010008AB01000800F002F80A
:1000F00000F03EF80AA090E8000C82448344AAF184
:100100000107DA4501D100F033F8AFF2090EBAE881
:100110000F0013F0010F18BFFB1A43F0010318473B
:10012000C4670000E4670000103A24BF78C878C1B3
:10013000FAD8520724BF30C830C144BF04680C60ED
:10014000704700000023002400250026103A28BF35
:1001500078C1FBD8520728BF30C148BF0B60704739
:100160001FB59DE8030000F0EBF81FBD10B510BDF2
:1001700000F074F91146FFF7F3FF03F05DF900F0AA
:1001800092F903B4FFF7F2FF03BC00F0C3F90000DB
:100190000948804709480047FEE7FEE7FEE7FEE71B
:1001A000FEE7FEE7FEE7FEE7FEE7FEE70448054957
:1001B000054A064B70470000612F0008ED0000085B
:1001C00090040020900A0020900600209006002055
:1001D00070B5A0FB0140B4F1805170F1000024BF64
:1001E000002070BD204600F007F805001CBF214626
:1001F00000F0E7F8284670BD70B5064600F084F8B8
:10020000056806F10B0020F00704B4429CBF0020F3
:1002100070BD2B466A68BAB11068A04210D304F1D1
:10022000080188423CBF5068586007D351681019D4
:1002300041601168091B016058601460101D70BD99
:1002400013465268002AE7D12146284600F064F898
:100250000028DED170BD70B50446051F00F054F8CB
:100260000068002C14BF446870BD002C18BFAC425D
:100270003CBF20466468F8D301680A18AA4218BF38
:10028000456003D12A680546114401602868411978
:10029000A1421CBF6C6070BD616869602168084440
:1002A000286070BD02F0FF0343EA032242EA0242E3
:1002B00000F002B84FF0000200B51346944696468F
:1002C000203922BFA0E80C50A0E80C50B1F1200169
:1002D000BFF4F7AF090728BFA0E80C5048BF0CC017
:1002E0005DF804EB890028BF40F8042B08BF704775
:1002F00048BF20F8022B11F0804F18BF00F8012BE7
:1003000070477047704770470048704750000020A2
:10031000704770477047704738B504460A4600205A
:100320006946AFF30080002808BF38BD0246009937
:10033000204600F071F8012038BD012000F086B899
:10034000F8B5AFF30080054600200C46102000BF32
:100350000646A819A0420DD9324669460020AFF3DF
:100360000080070008BF00F071F80098A04218BF95
:100370000546C419FFF7C8FF05600746F01D20F0C9
:1003800007004619284600F00AF8B44208BFF8BD35
:10039000A21B31463868BDE8F84000F03DB80021A6
:1003A0000160C0E9011070471020704710B500F0DF
:1003B0002FF8006810BD10B5044600F029F804605D
:1003C00010BD4FF000020429C0F0128010F0030CA1
:1003D0003FF472AFCCF1040CBCF1020F18BF00F86F
:1003E000012BA8BF20F8022BA1EB0C01FFF764BF83
:1003F0005FEAC17C24BF00F8012B00F8012B48BF45
:1004000000F8012B704700000048704748000020AA
:100410000048704748000020034640688C4600288A
:1004200018BF88423CBF03464068F8D31868184498
:10043000884207D00CF1030020F00700001D411A8C
:10044000521A0146081D0A60FFF705BF10B500F0FB
:1004500039F8BDE8104000F02FB870477546FFF737
:10046000D3FFAE4605006946534620F00700854697
:1004700018B020B5FFF79AFEBDE820404FF0000607
:100480004FF000074FF000084FF0000BAC46ACE80F
:10049000C009ACE8C009ACE8C009ACE8C00921F06B
:1004A00007018D46704710B50446AFF30080204623
:1004B000BDE81040FFF765BE002801D000F02AB863
:1004C0007047000010B5012805D0002103A000F0FE
:1004D00027F8012010BD09A1F8E700005349475251
:1004E000544D454D3A204F7574206F662068656104
:1004F00070206D656D6F7279000000003A204865CC
:100500006170206D656D6F727920636F72727570A6
:100510007465640001491820ABBEFEE726000200A6
:1005200070B505460C460A2000E06D1C00F011F87D
:1005300035B128780028F8D102E0641C00F009F8F1
:1005400014B120780028F8D1BDE870400A20AFF33C
:10055000008008B569468DF800000320ABBE08BDD9
:10056000B0B5044600688168C90709D0816821F0E8
:100570000101816000F0C8FD21688968C90701D1C7
:100580000020B0BD054602E08068C007F8D000F04A
:10059000BBFD411B20680329F6D38168C907F3D04E
:1005A000A06A40F01000A062E06A40F00100E06242
:1005B0000120B0BDB0B582B0044600200190216892
:1005C0008A68D2074FD1886840F00100886040F205
:1005D0003C00C2F2000000684DF68361C4F21B319A
:1005E000A0FB0101880C01900198A0B1019801388D
:1005F0000190019878B1019801380190019850B1AB
:10060000019801380190019828B1019801380190B2
:1006100001980028EAD100F077FD21688968C907B0
:100620001CD1054603E000BF8068C0071AD100F066
:100630006BFD411B20680329F6D38168C907F3D1FC
:10064000A06A40F01000A062E06A40F00100E062A1
:10065000002084F82400012002B0B0BD002002B0C8
:10066000B0BD00BF002002B0B0BD0000FEE700003A
:1006700070470000EFF3108072B600BFFEE7000085
:1006800070B582B004460020019094F8240001283F
:1006900004D10225284602B070BD00BF012084F8B5
:1006A00024002046FFF75CFF054600286CD1A06AB5
:1006B00041F2021188430230A06240F23C00C2F2D3
:1006C00000000668022000F0B9FFB6FBF0F0400021
:1006D00001900198A8B100BF0198013801900198DC
:1006E00078B1019801380190019850B10198013812
:1006F0000190019828B101980138019001980028D3
:10070000EAD12046FFF756FF2068816841F00801D2
:10071000816000F0F9FC21688A6812070ED48868AD
:1007200040F00400886000F0EFFC21688968490708
:1007300014D401206FF0030122E000BF064602E05E
:1007400088680007EBD500F0DFFC801B21680B28D0
:10075000F6D388680007F3D50EE000BF064602E036
:1007600080684007E5D500F0CFFC811B20680B298D
:10077000F6D381684907F3D5012510206FF01201E7
:10078000A26A11400843A062002084F82400284691
:1007900002B070BD10B581B00022009290F8242004
:1007A000012A03D10221084601B010BD4B68012285
:1007B000062B80F8242017D8D0F800C003EB830361
:1007C0005A1F1F23DCF834E003FA02F40B682EEA08
:1007D000040403FA02F22243CCF83420092B03EB81
:1007E000430219D936E000BFD0F800C00C2B03EB50
:1007F00083021DD8233A1F23DCF830E003FA02F409
:100800000B682EEA040403FA02F22243CCF83020EB
:10081000092B03EB43021DD8DCF81030072489684C
:100820009440A34391401943CCF81010002130E0CC
:10083000413A1F23DCF82CE003FA02F40B682EEA9D
:10084000040403FA02F22243CCF82C20092B03EB18
:100850004302E1D9DCF80CE01E3A07248968944091
:100860002EEA0404914023F001022143102ACCF81F
:100870000C100DD142F20841C4F20101A1F10802AD
:1008800094450DD0816A41F020018162012100E090
:100890000021002280F82420084601B010BD00BFCE
:1008A0000A68120230D40A68102B42F400020A606F
:1008B0002CD140F23C01C2F2000109684DF683627E
:1008C000C4F21B32A1FB0212910C01EB8101490021
:1008D00000910099E1B10099013900910099C9B1E5
:1008E0000099013900910099B1B100990139009145
:1008F000009999B1009901390091009900294FF0B0
:100900000001E8D1C5E700BF0021C2E70021C0E730
:100910000021BEE70021BCE70021BAE70021B8E7CB
:100920000068C06C70470000B0B5002800F0A880D7
:100930000446806A20B121688868C0070BD114E0A2
:100940000020E06284F82400204600F09BF8216833
:100950008868C00709D0886820F00100886000F02E
:10096000D3FB21688A68D20726D1A06AC0063AD490
:10097000A06A41F2021290430230A062E069D4E919
:10098000013240EA030C531EB3FA83F35D091346A8
:10099000B2F5807F18BF2B02207D257B01284CEA11
:1009A000450030D135B3A56A45F02005A562E56A5A
:1009B00045F00105E56226E0054602E08868C007CB
:1009C000D3D000F0A1FB401B21680328F6D3886830
:1009D000C007F3D0A06A40F01000A062E06A40F0C7
:1009E0000100E062A06AA06A40F01000A06201204D
:1009F000B0BD00BFD4F818C04EF60005CFF6FF75A5
:100A000005EB4C352B434D68B2F5807F25F46945E5
:100A100043EA05034B608B684FF2FD75CFF6E17535
:100A200003EA050343EA00038B6001D0012A07D1E2
:100A300022690023CFF6F07303EB025201E000BFFE
:100A40000022CB6A23F470031A43CA62896840F615
:100A5000FE62CFF61F721140814207D10020E06292
:100A6000A16A012262F30101A162B0BDA06A40F057
:100A7000100020F00200A062E06A40F00100E06295
:100A80000120B0BD80B586B0014640F60040C4F2FA
:100A90000100096800F5C05291424FF00001CDE914
:100AA000041101D006B080BD41F21801C4F2020168
:100AB0000A6842F400720A600A6802F40072019245
:100AC000019A0A6842F008020A60096801F0080108
:100AD00001910199012102910321039102A900F0E2
:100AE000F1F906B080BD0000F0B581B000270D46D9
:100AF0000446009700F008FB21688A68D20543D4B9
:100B000006464868C00503D4C86A10F4700F45D083
:100B100040F23C00C2F200000768022000F08EFDA7
:100B2000216844F624130A69B7FBF0F0C2F292433D
:100B30001A4206D1CA6844F62413C0F292031A423C
:100B40005ED00A6942F29243C1F249231A4207D1A8
:100B5000CA6842F29243C0F249031A4200F0C080D0
:100B60000A6949F24923C0F224031A424FF0FC02F9
:100B700057D1CF681F4208BF5422009B02FB00F7E9
:100B8000BB4253D3C3E000BFA06A40F02000A06284
:100B900084F82470012001B0F0BD00BF0868800710
:100BA00000F1B580681C00F0A880FDB908688007D6
:100BB00072D50868800700F1AA80086880076BD5A5
:100BC0000868800700F1A3800868800764D508687A
:100BD000800700F19C80086880075DD50868800761
:100BE000E4D594E00868800700F1918000F08CFA69
:100BF000801B2168A842F5D908688007F2D44BE031
:100C00000A6942F29243C1F249231A424FF0290283
:100C100007D1CB6842F29247C0F249073B4208BF76
:100C20001422009B02FB00F7BB4270D2681C4FD01D
:100C300055BB0098B8422FD300980130009000981F
:100C4000B84264D20098B84226D300980130009090
:100C50000098B8425BD20098B8421DD3009801308A
:100C600000900098B84252D20098B84214D300982D
:100C7000013000900098B842DBD348E00098013082
:100C800000900098B84233D200F03EFA801BA84290
:100C9000F4D90098B842F1D2A06A40F00400A062F2
:100CA000002084F82400032001B0F0BD009801303A
:100CB00000900098B8422AD2009801300090009825
:100CC000B84224D20098013000900098B8421ED259
:100CD0000098013000900098B842E7D317E000BFB9
:100CE0005422009B02FB00F7BB429FD30FE000BFE2
:100CF00021680CE00868800709D40868800706D4DA
:100D0000086880075CBF08685FEA8070F2D56FF002
:100D100012000860A06A40F40070A062886800F4C5
:100D20006020B0F5602F01D1207B18B1002001B008
:100D3000F0BD00BFA06A20F48070A062A06AC00469
:100D4000F4D4A06A40F00100A062002001B0F0BD20
:100D500010B5044690F82400012804BF022010BDFD
:100D6000012084F824002046FFF724FC20B1002154
:100D700084F8241010BD00BF42F2044C2068A16A20
:100D8000C4F2010C40F2013291430CF57F7201F57F
:100D900080719042A16233D0A16A21F48011A162D6
:100DA0004168490504D5A16A012363F30D31A162AD
:100DB000A16A0023C9044FF0000144BFE16A21F099
:100DC0000601E1626FF0020184F82430016081685D
:100DD00001F46021B1F5602F06D190420AD1DCF810
:100DE000001011F4702F05D0816841F480118160EA
:100DF000002010BD816841F4A0018160002010BD79
:100E0000DCF8001011F4702FC6D0A16A41F48011F3
:100E1000A162DCF800104905C5D4C9E7B0B50446A5
:100E200090F82400012804BF0220B0BD01212068F1
:100E300084F824108168C90709D0816821F0010174
:100E4000816000F061F921688968C9070ED12146E7
:100E500051F8280F41F2011220EA0202002042F06C
:100E600001020A60002184F82410B0BD054602E0AA
:100E70008068C007EBD000F047F9411B20680329C8
:100E8000F6D38168C907F3D0A06A214640F010006C
:100E9000A06251F82C2F0120E1E70000B0B5044614
:100EA00000F032F9054640F22C00C2F20000007852
:100EB000611C18BF044400BF00F026F9401BA0428B
:100EC000FAD3B0BD2DE9F04F82B00E68002E00F0CD
:100ED000038140F20C4C41F200424FF6FF7EC4F217
:100EE000010CC4F20102042700240123C1F2100EF8
:100EF0004FF0000A4FF00009904208BF0327009707
:100F000045E000BF012704F00C030F229A402BEAB2
:100F1000020207FA03F34FEA9A051A4346F825201E
:100F2000D1F804B040F20045C4F201055FEACB32CB
:100F30002A6854BF22EA080242EA08022A606A6864
:100F40005FEA8B3354BF22EA080242EA08026A6071
:100F50005FEACB23AA6854BF22EA080242EA0802E9
:100F60005FEA8B23AA60DCF800204FF0010354BF36
:100F700022EA080242EA0802CCF800200E680AF1D0
:100F8000010A36FA0AF204F1040400F0A58003FA1B
:100F90000AF816EA080FF1D04E68764512DC122ED8
:100FA00056D8DFE806F0350B45495555555555558A
:100FB000555555555555554D510000BFD1F80C901C
:100FC00046E000BF4FF6FF72C1F2210296420FDCED
:100FD0000022C1F2110296421AD00022C1F212027E
:100FE000964215D00022C1F22102964210D02FE085
:100FF0000022C1F2220296420AD00022C1F231023E
:10100000964205D00022C1F23202964220D100BFA2
:101010008A684AB1012A14BFC0F81480C0F8108051
:101020004FF0080914E000BF4FF0040910E000BFC2
:10103000CA6802F108090BE04FF0000908E000BFA0
:10104000CA6802F1040903E0CA6802F10C0900BF92
:1010500022460646BAF1080F24BF203A0436376804
:101060000F25954027EA050509FA02F22A43326066
:10107000CA79D2067FF582AF41F21803C4F20203A7
:101080001A6842F001021A601A6802F00102019225
:10109000019A40F20042C4F20102A2F57E762AF0E3
:1010A000030256F802B040F60002C4F20102904278
:1010B00010D040F60042C4F2010290423FF422AF49
:1010C00041F20002C4F20102009F904208BF0227D1
:1010D00019E700BF002716E702B0BDE8F08F000057
:1010E0008068084018BF012070470000C26802EA0B
:1010F0000103914341EA034101617047002A08BF9F
:10110000090401617047000040F28C40C2F2000007
:101110000068704770B5B8B3044690F83D0028B930
:10112000002084F83C00204600F09EF9242084F83A
:101130003D002068016821F001010160016841F46F
:1011400000410160016821F40041016000F054FC9D
:1011500048F28041C0F21E0140F60013D4F804E0CA
:1011600088424FF00001C0F23D0348F2A16C4FF0FD
:10117000000238BF01219842C0F2010C38BF0122A1
:10118000E64538BF0A460AB1012070BD4DF68361BD
:10119000C4F21B31A0FB01122168950C4B684FF47F
:1011A000967623F03F0343EA9243754344F6D356C1
:1011B0004B60C1F262060B6AA5FB0656B50923F027
:1011C0003F03E64538BF950C6A1C1A430A62CA6998
:1011D00048F2A0664CF6FF73C0F20106B64522EA5B
:1011E00003020BD801384FEA4E03B0FBF3F0013095
:1011F0006FF31F30042898BF04201EE0A368013855
:1012000063B119230EFB03F3B0FBF3F001306FF36E
:101210001F3078B100F5804008E000BF0EEB4E03B0
:10122000B0FBF3F001306FF31F3028B100F5004040
:1012300003E000BF012000E001201043C8610868FE
:10124000D4E9072320F0C0001043184308608868E1
:1012500048F2FF3204F10C0690434CCE1843104381
:10126000A5698860C86820F0FF0030432843C86043
:10127000086840F00100086000202021206484F804
:101280003D10206384F83E0070BD00002DE9F0435E
:1012900083B0994616460F460446FFF735FF94F88B
:1012A0003D1020291CD1054620688169890713D586
:1012B000FFF72AFF401B1928F6D9002020212063C0
:1012C00084F83D1084F83E00216C41F02001216437
:1012D00084F83C0004E000BF94F83C10012903D1DD
:1012E000022003B0BDE8F083012284F83C200368AB
:1012F000DDE90B180A9ADB0703D1036843F0010309
:101300000360036823F400630360212084F83D0038
:10131000402084F83E000020206462626185608D78
:10132000394620850020CFF6FF70E0622046324625
:101330004B46CDF80080019501F078FA20B10120EC
:1013400003B0BDE8F08300BF208D002850D0206896
:1013500008F10106014651F8142F12062CD49EB153
:10136000B8F1000F5AD000BF086840055ED4FFF7FF
:10137000CBFE401B404556D82068014651F8142F3B
:101380001206F1D518E000BF0A6852054ED40A686B
:10139000120611D40A68520548D40A6812060BD402
:1013A0000A68520542D40A68120605D40A68520532
:1013B0003CD40A681206E7D5626A114611F8013B6F
:1013C0000361238D6162591E2185678D013F678509
:1013D00047697F070AD50F0408D051780161911C35
:1013E0006162991E2185628D013A62850904B1D13D
:1013F000204641462A4601F053FB38BB206801686D
:1014000041F400710160202084F83D00002084F840
:101410003E0084F83C0003B0BDE8F0830868400556
:1014200004D4FFF771FE202004E000BF6FF4806059
:101430000860042000212022216384F83D2084F8E4
:101440003E10226C1043206484F83C10206C042869
:101450007FF475AF2068016841F4007101600120DC
:1014600003B0BDE8F083000010B586B045F200413E
:101470000068C4F2000100228842049202D006B043
:1014800010BD00BF41F21804C4F20204206840F00D
:1014900008002060206800F0080001900198C0203A
:1014A0000290122003900320059001F5384002A914
:1014B000FFF708FD606840F400106060606800F4A9
:1014C00000100190019806B010BD000040F22C0001
:1014D00040F28C41C2F20000C2F2000100780A68BA
:1014E000104408607047000080B542F20000C4F26A
:1014F0000200016841F010010160032000F08EF845
:101500000F2000F005F800F027F8002080BD000053
:1015100070B540F22C06C2F2000640F23C0132786F
:10152000C2F200014FF47A730968B3FBF2F2044689
:10153000B1FBF2F1084600F061FC0F2C4FF0010501
:1015400008D838B94FF0FF3021460022002500F0BE
:1015500039F87460284670BD82B041F21800C4F2B8
:1015600002000168022241F001010160016801F0FE
:10157000010101910199416841F080514160406849
:1015800000F08050009000980420C4F2010001682F
:1015900062F31A61016002B070470000002848BF82
:1015A0007047C1B200F01F00012202FA00F04EF2B3
:1015B0000012CEF2000242EAD10121F003010860DC
:1015C0007047000010B54EF60C5CCEF2000CDCF853
:1015D0000030C3F3022E8EF00704042C28BF04242D
:1015E000BEF103034FF0FF3E0EFA04F438BF0023B0
:1015F000A14399400EFA03F39A43114300F00F02FE
:1016000000F160430901043A03F564436244002891
:1016100048BF02F10C03197010BD00004EF60C51CA
:10162000CEF200010A684FF6FF031A4060F30A2267
:1016300042F0806040F0FD700860704780B501287E
:1016400018D0022836D0102832D141F20401C4F259
:1016500002010A6851F8040CC00129D5C2F3834085
:101660002DA3185CD2033DD440F60012C0F23D0217
:10167000504343E041F20400C4F20200C16940F269
:1016800002320A40B2F5817F04BF4FF4004080BDB2
:1016900001F44071B1F5407F1CD0B1F5007F07D156
:1016A000006A49F64041800701EAE07080BD00BF52
:1016B000002080BD00F0B4F941F20401C4F202013F
:1016C00009680222C1F3813102EB4101B0FBF1F064
:1016D00080BD00BF50F8040C4FF22441800301EAA2
:1016E000E07080BD0A6810A3C2F340429A5C41F2E8
:1016F0000023C0F27A03B3FBF2F2504309684902B7
:1017000048BF80BD4AF6AB214000CAF6AA21A0FB23
:101710000101480880BD00BF02030405060708094F
:101720000A0B0C0D0E0F1010010200002DE9F04104
:1017300082B00446007841F21C06C007C4F20206DB
:101740004AD0306810F0805808D1306840F080509E
:101750003060306800F080500190019847F2000737
:10176000C4F200073868C00512D4386840F48070AD
:101770003860FFF7C9FC05463868C00508D4FFF794
:10178000C3FC401B6428F7D9032002B0BDE8F081F8
:10179000706810F4407012D0616801F440718842A2
:1017A0000DD0706840F24042C4F24222012320F47E
:1017B000407113600023C007136071602AD1706804
:1017C000616820F440700843B8F1000F706003D1E5
:1017D000306820F0805030602068810707D556F8C7
:1017E000181CA26821F44041114346F8181CC00699
:1017F00004D4002002B0BDE8F08100BF56F8180CF8
:10180000E16820F48000084346F8180C002002B07C
:10181000BDE8F081FFF778FC054641F2883700BF4C
:1018200070688007CBD4FFF76FFC401BB8424FF0C5
:101830000300F5D9EBE700002DE9F04381B0002863
:1018400000F0858042F20008C4F202080446D8F88D
:1018500000000D4600F0070088420CD2D8F80000C6
:1018600020F007002843C8F80000D8F8000000F076
:101870000700A8426BD1206841F204098107C4F235
:10188000020917D5410705D5D9F8001041F4E061E8
:10189000C9F80010010705D5D9F8001041F46051CE
:1018A000C9F80010D9F80010A26821F0F001114326
:1018B000C9F80010C00741D1D8F8000000F00700B7
:1018C000A8420CD9D8F8000020F007002843C8F837
:1018D0000000D8F8000000F00700A84237D12068C7
:1018E000410707D5D9F80010E26821F4E0611143FF
:1018F000C9F80010000708D5D9F80000216920F4C4
:10190000605040EAC100C9F80000D9F8002002F098
:101910000C00082841F20020C0F27A0050D146F2B3
:101920009643C2F38341C0F60003595CD2033BD413
:1019300040F60010C0F23D00484341E060680228D4
:101940000AD001282AD159F8041C890308D401209F
:1019500001B0BDE8F08300BF59F8041C8901F6D539
:10196000D9F8001021F003010843C9F80000FFF77F
:10197000CBFB064641F28837D9F80000616800F0D9
:101980000C00B0EB810F97D0FFF7BEFB801BB84275
:10199000F2D9032001B0BDE8F08300BF59F8041C60
:1019A0008907D4D5DCE700BFD9F8002045F22073C1
:1019B000C2F34042C0F600039A5C4843B0FBF2F029
:1019C000D9F8001045F22272C1F30311C0F60002EB
:1019D000515C40F23C0220FA01F140F23000C2F2C8
:1019E00000000068C2F200021160FFF791FD0020C4
:1019F00001B0BDE8F083000040F23C0041F2040178
:101A0000C2F20000C4F202010068096845F23272B5
:101A1000C1F30221C0F60002515CC84070470000CB
:101A200040F23C0041F20401C2F20000C4F20201A3
:101A30000068096845F23272C1F3C221C0F60002A3
:101A4000515CC840704700002DE9F04182B0002889
:101A500068D00446007841F20006C007C4F20206CE
:101A600025D0706800F00C0004281BD0706800F0CE
:101A70000C00082802D17068C00313D460680028E5
:101A800000F06881B0F5A02F00F07C81B0F5803FB8
:101A900000F07C81306820F480303060306820F4C1
:101AA000802076E13068800301D56068D0B320786B
:101AB000800718D5706810F00C0F07D0706800F020
:101AC0000C0008286ED17068C0036BD430688007A2
:101AD00002D52069012825D13068616920F0F8001D
:101AE00040EAC1003060207800071FD4207840070A
:101AF00032D4E56995B1706800F00C00082840F018
:101B00008F80012D0ED07068216A00F480328A42E5
:101B100008D1616A00F47010884203D1002002B03D
:101B2000BDE8F081012002B0BDE8F081A069002885
:101B300062D00020C4F242200121C0F88014FFF7D7
:101B4000E3FA0546706A800700F18C80FFF7DCFA43
:101B5000401B0228F6D92AE1F06910F0805808D11C
:101B6000F06940F08050F061F06900F08050009022
:101B7000009847F20007C4F200073868C00529D46E
:101B8000386840F480703860FFF7BEFA054600BF41
:101B90003868C0051ED4FFF7B7FA401B6428F7D990
:101BA00005E100BF2069002840F20000C4F2422095
:101BB00000F0828001210160FFF7A6FA054600BF10
:101BC000306880073FF588AFFFF79EFA401B022878
:101BD000F6D9ECE0E068002800F08080052800F0ED
:101BE0009780012800F09880306A20F00100306270
:101BF000306A20F0040092E00020C4F2422000216C
:101C0000C0F88014FFF780FA054600BF706A8007AD
:101C10007FF56CAFFFF778FA401B0228F6D9C6E0D3
:101C20000027C4F2422700203866FFF76DFA022D24
:101C300005460BD13068800140F1BE80FFF764FAA1
:101C4000401B02284FF00300F4D968E73068800198
:101C50007FF564AFFFF758FA401B02284FF00300EE
:101C6000F4D95CE740F23C00C2F20000006844F6A0
:101C7000D351C1F26201A0FB0101480A019000BFEB
:101C800000BF0198411E002801913FF42FAF00BF13
:101C90000198411E002801913FF428AF00BF019830
:101CA000411E002801913FF421AF00BF0198411E61
:101CB00000280191E4D119E700210160FFF724FA1F
:101CC000054600BF306880077FF50DAFFFF71CFAAF
:101CD000401B02284FF00300F4D920E7306A20F0BF
:101CE00001003062306A20F004003062FFF70CFA25
:101CF000054641F2883700BF306A800720D5FFF7DC
:101D000003FA401BB8424FF00300F5D907E700BFC4
:101D1000306A40F004003062306A40F00100306206
:101D2000FFF7F2F9054641F2883700BF306A8007B5
:101D300006D4FFF7E9F9401BB842F7D937E000BFF6
:101D4000B8F1000F7FF4D5AEF06920F08050F0615B
:101D5000CFE600BF306820F480303060306820F477
:101D600080203060FFF7D0F9054600BF306880035F
:101D70007FF59DAEFFF7C8F9401B64284FF00300C4
:101D8000F4D9CCE6306840F480203060306840F40C
:101D900080303060FFF7B8F9054600BF3068800337
:101DA0003FF585AEFFF7B0F9401B6428F6D9032054
:101DB00002B0BDE8F08100BF206AB0F5803F05D1D8
:101DC0007168A26821F40031114371607168626A20
:101DD00021F4741111430843706001203866FFF745
:101DE00093F90446306880013FF598AEFFF78CF90F
:101DF000001B02284FF00300F4D990E6411E00209A
:101E0000B0EB116F1CBF012070474EF21002CEF2F2
:101E1000000251604EF62351CEF20001F0230B7008
:101E20000721906011607047704700007047000004
:101E3000B0B590F83C20012A04BF0220B0BD01F1EA
:101E400008053CCDD1E900CE23F47C5322F4705236
:101E50001A432EF4F0431A432CF4E0431A4324F4BB
:101E6000C0431A432A43C96922F4804203681143DC
:101E70005964002180F83C100846B0BD10B590F8B8
:101E80003C20012A4FF0020233D080F83D20026846
:101E9000D2F804E0D2F808C00C682EF07003234397
:101EA00040F2FF74C4F20004A24253600ADCB2F1B3
:101EB000804F13D040F20043C4F200039A420DD089
:101EC00011E000BF42F60043C4F201039A4205D07C
:101ED00040F60003C4F200039A4204D149682CF092
:101EE0008003194391600121002280F83D1080F8A1
:101EF0003C20104610BD0000002804BF01207047A0
:101F000010B5044690F83D0028B9002084F83C0044
:101F1000204600F067F8022084F83D00206840F277
:101F2000FF730268C4F2000342F6004C9842C4F208
:101F3000010C15DCB0F1804F1AD040F20041C4F220
:101F40000001884214D0984218DCB0F1804F1DD0B7
:101F500040F20041C4F20001884217D01AE000BFED
:101F6000604505D040F60001C4F200018842EAD184
:101F7000A16822F070020A439842E6DD604505D070
:101F800040F60001C4F20001884203D1216922F425
:101F900040720A43A36922F08001D4F804E0E268A9
:101FA000194360450160C262C0F828E002D161694E
:101FB000CCF8301001214161002084F8461084F8EB
:101FC0003E1084F83F1084F8401084F8411084F8E3
:101FD000421084F8431084F8441084F8451084F8C3
:101FE0003D1010BD80B582B0006840F2FF71C4F2B0
:101FF0000001884220DCB0F1804F3BD040F200412C
:10200000C4F20001884233D141F21C00C4F2020044
:102010000168002241F0020101600068002100F027
:102020000200019001981D20FFF7CCFA1D2002B09C
:10203000BDE88040FFF7B2BA40F60001C4F20001EB
:1020400088422FD042F60041C4F2010188420FD1EC
:1020500041F21C00C4F2020050F8041C41F400617B
:1020600040F8041C50F8040C00F400600190019842
:1020700002B080BD41F21C00C4F2020001680022DF
:1020800041F0010101600068012100F001000190B0
:1020900001981C20FFF796FA1C2002B0BDE8804092
:1020A000FFF77CBA41F21C00C4F202000168002272
:1020B00041F0040101600068022100F00400019079
:1020C00001981E20FFF77EFA1E2002B0BDE8804076
:1020D000FFF764BA90F83D1001291CBF012070473A
:1020E000022180F83D10006840F2FF72C168C4F21E
:1020F0000002904241F00101C16009DCB0F1804F63
:1021000012D040F20041C4F2000188420CD012E02B
:1021100042F60041C4F20101884205D040F60001B8
:10212000C4F20001884206D1816801F00701062946
:1021300004BF00207047016841F0010101600020E8
:102140007047000080B590F83C20012A4FF0020251
:1021500000F0BF8080F83D20D0F800C04FF67772C5
:10216000DCF8083023EA0202CCF808200B683F2B89
:102170001CDD5F2B20DD602B50D0B3F5005F6DD0F0
:10218000702B40F0A080D1E901E3C968DCF8082099
:1021900043EA0E0322F47F4243EA01211143CCF8C3
:1021A0000810DCF8081041F077018AE01F2B29DCC9
:1021B00063B3102B2AD086E0402B63D0502B40F025
:1021C0008280D1F804E0C968DCF82030DCF82020F7
:1021D00022F00102CCF82020DCF8182022F0F002D6
:1021E00042EA011123F00A0242EA0E02CCF818106A
:1021F000CCF82020DCF8081041F0570121F0200134
:102200005FE000BF202B01D0302B5CD1DCF8081040
:1022100021F07001194341F0070152E0D1F804E0C8
:10222000C968DCF8203023F01003CCF82030DCF84B
:102230001830DCF8202023F4704322F0A00243EA97
:10224000013142EA0E12CCF81810CCF82020DCF84C
:10225000081041F0670121F0100132E0D1E901E3FB
:10226000C968DCF8082043EA0E0322F47F4243EAFF
:1022700001211143CCF80810DCF8081041F480412A
:102280001FE000BFD1F804E0C968DCF82030DCF8BA
:10229000202022F00102CCF82020DCF8182022F0C7
:1022A000F00242EA011123F00A0242EA0E02CCF8DF
:1022B0001810CCF82020DCF8081041F0470121F07C
:1022C0003001CCF808100121002280F83D1080F880
:1022D0003C20104680BD00007047000010B501682A
:1022E00004460869800744BFC8685FEA807039D433
:1022F0000869400744BFC8685FEA40703ED4086977
:10230000000744BFC8685FEA007045D40869C0068A
:1023100044BFC8685FEAC0604AD40869C0071CBFF0
:10232000C8685FEAC07051D10869000644BFC86838
:102330005FEA006052D40869400644BFC8685FEA9B
:10234000406053D40869800646BFC8685FEA806071
:1023500010BD6FF0200220460A61BDE81040FFF773
:1023600065BD00BF6FF00200086101202077886919
:10237000800743D02046FFF7AFFF45E06FF0040031
:10238000086102202077886910F4407F40D0204601
:10239000FFF7A2FF42E000BF6FF0080008610420D1
:1023A0002077C86980073DD02046FFF795FF3FE0C2
:1023B0006FF01000086108202077C86910F4407F92
:1023C0003AD02046FFF788FF3CE000BF6FF00100E5
:1023D0000861204600F024FA2168A5E76FF080002C
:1023E00008612046FFF720FD2168A4E76FF0400058
:1023F0000861204600F016FA2168A3E7204600F0A5
:1024000025F8204600F09AF92168002020776FE730
:10241000204600F01BF8204600F090F921680020CB
:1024200020776CE7204600F011F8204600F086F98E
:1024300021680020207769E7204600F007F8204651
:1024400000F07CF921680020207766E770470000E3
:102450002DE9F04390F83C30012B04BF0220BDE889
:10246000F0834FEAB202032A00F2E980DFE802F0CB
:10247000023A78B4036842F600461A6AC4F20106CA
:1024800022F001021A621D6A1A465C6852F818CFDF
:10249000B3428E68D1F800E025F0020545EA060552
:1024A0000CD1CE68D1E9057824F4407425F00C05F0
:1024B00026F004063C43354344EA08042CF0730735
:1024C00047EA0E075C609F614F6809695F631D62A0
:1024D0009F6947F008079F619F6927F004079F6184
:1024E000AAE000BF036842F600461A6AC4F2010679
:1024F00022F010021A621D6A1A46D3F804C052F87C
:10250000184FB3428E68D1F800E025F0200545EA67
:10251000061510D1CE68D1E9058725F0C0096FF006
:10252000400505EA06152CF4406647EA080745EA27
:10253000090546EA870C24F4E64444EA0E27C3F86A
:1025400004C09F614F6809699F631D629F6947F4DA
:1025500000679F619F6927F480679F616BE000BF00
:10256000036842F600461A6AC4F2010622F4807239
:102570001A621D6A1A46D3F804C052F81CEFB3421F
:102580008E680C6825F4007545EA062511D1CE68E1
:10259000D1E9058725F44069360240F2FF4526EA75
:1025A00005052CF4405647EA080745EA090546EABE
:1025B000071C2EF073072743C3F804C0DF614F6880
:1025C0000969DF631D62DF6947F00807DF61DF69C2
:1025D00027F00407DF612FE0036842F600471A6A1C
:1025E000C4F2010722F480521A621A46D3F820C0BE
:1025F0005D6852F81C4FD1F800E08E68BB4204D1F0
:102600004F6925F4804545EA87152CF4005747EAC1
:10261000063724F4E64646EA0E265D60DE614E6823
:1026200009691E641F62DF6947F40067DF61DF69C3
:1026300027F48067DF6109021368194311600021E4
:1026400080F83C100846BDE8F0830000002804BF75
:102650000120704710B5044690F83D0028B90020CD
:1026600084F83C00204600F067F8022084F83D0022
:10267000206840F2FF730268C4F2000342F6004C87
:102680009842C4F2010C15DCB0F1804F1AD040F230
:102690000041C4F20001884214D0984218DCB0F125
:1026A000804F1DD040F20041C4F20001884217D093
:1026B0001AE000BF604505D040F60001C4F20001F9
:1026C0008842EAD1A16822F070020A439842E6DD0E
:1026D000604505D040F60001C4F20001884203D1F4
:1026E000216922F440720A43A36922F08001D4F8E0
:1026F00004E0E268194360450160C262C0F828E066
:1027000002D16169CCF8301001214161002084F8C8
:10271000461084F83E1084F83F1084F8401084F886
:10272000411084F8421084F8431084F8441084F86F
:10273000451084F83D1010BD704700007047000040
:1027400041B1082910D0042914BF00F1410200F161
:102750003F020BE090F83E20012A1CBF0120704789
:10276000022280F83E2013E000F140021278012A94
:102770001CBF012070470222082907D0042914BF7A
:1027800080F8412080F83F2002E000BF80F8402020
:10279000006801F01F010122036A8A4023EA020156
:1027A0000162036A42F64441C4F201011A43A1F1F5
:1027B0004403984202620FD040F2FF71C4F200015C
:1027C000884213DCB0F1804F1CD040F20041C4F2CB
:1027D0000001884216D01CE00A6842F400420A60F8
:1027E00040F2FF71C4F200018842EBDD42F6004185
:1027F000C4F20101884205D040F60001C4F2000194
:10280000884206D1816801F00701062904BF002033
:102810007047016841F0010101600020704700002D
:102820007047000070470000FEE700002DE9F0430C
:1028300081B00446006890460268099D42F48072A7
:1028400002604269089E9946D2070F461DD1711C4D
:1028500011D0002E00F0D280FEF756FC401BB04293
:1028600000F2CE8020684169C907F5D00DE000BFB5
:102870004169C90709D14169C90706D14169C90739
:1028800004BF41695FEAC171F2D007F0FE01016146
:102890004169890738D44169721C01F4806111D003
:1028A00049BB002E00F0E880FEF72EFC401BB04232
:1028B00000F2E48020684169890725D4416949050F
:1028C000F2D518E0B9B9416989071DD441694905B4
:1028D00011D44169890717D4416949050BD441696D
:1028E000890711D44169490505D4416989070BD489
:1028F00041694905E7D5016841F4007101606FF451
:10290000806141610420BAE000210091014651F844
:10291000142F00924A680092009A0A6812061ED488
:10292000002E00F08580721C4DD10A68520500F11E
:1029300087800A68120612D40A68520500F1808066
:102940000A6812060BD40A68520579D40A6812067E
:1029500005D40A68520573D40A681206E5D5B9F1A0
:10296000010F43D04FEA18210161014651F8142F9D
:1029700012063BD4002E5BD0721C29D10A68520586
:102980005ED40A68120631D40A68520558D40A681F
:1029900012062BD40A68520552D40A68120625D4AE
:1029A0000A6852054CD40A681206E7D51EE000BF3B
:1029B000FEF7AAFB401BB0423FD82068014651F801
:1029C000142F1206CBD408684005F1D538E000BFBB
:1029D0000868400534D4FEF797FB401BB0422CD862
:1029E0002068014651F8142F1206F1D55FFA88F1DC
:1029F0000161002001B0BDE8F08300BFFEF784FB59
:102A000000202021206384F83D1084F83E00216CD2
:102A100041F020012164216884F83C000868C00569
:102A200044BF4FF400702064032001B0BDE8F08380
:102A30000868400504D4FEF767FB202004E000BFCF
:102A40006FF480600860042000212022216384F854
:102A50003D2084F83E10226C1043206484F83C1022
:102A6000206C042817D12068016841F400710160CE
:102A7000012001B0BDE8F083FEF746FB20200021D5
:102A80002022216384F83D2084F83E10226C1043FC
:102A9000206484F83C10012001B0BDE8F083000000
:102AA00070B50368044653F8140F400737D40E4638
:102AB000F1B1701C24D100BF1868400532D41868E9
:102AC00040072CD4186840052CD41868400726D439
:102AD0001868400526D41868400720D418684005B7
:102AE00020D4186840074FF0000048BF70BDE3E7EE
:102AF0001868400516D4FEF707FB202016E000BF3B
:102B0000154600BF186840050CD4FEF7FDFA401BBF
:102B1000B042F2D8236853F8140F4007F2D50020D2
:102B200070BD00BF6FF48060186004200021202277
:102B3000216384F83D2084F83E10226C1043206409
:102B4000012084F83C1070BDB0B584B040F2E8209C
:102B500042F20041C2F20000C4F2010100244FF42D
:102B60006022012504730475C261C0E90014846009
:102B70000561FDF7D9FE002818BFFDF77BFD082091
:102B8000CDE9010540F2E820C2F2000001A903945A
:102B9000FDF700FE002818BFFDF76CFD04B0B0BDC6
:102BA0002DE9F04784B041F21800C4F20200016838
:102BB00040F6004A41F0100101600168C4F2010AC8
:102BC00001F010010091009901680AF5806541F05B
:102BD000080101600168002201F0080100910099DC
:102BE00001684FF4005641F00401016000684FF4A1
:102BF000005100F004000090009828464FF00009B2
:102C0000FEF77CFA50464FF2080100224FF2080806
:102C1000FEF774FA00966E460127022428463146D4
:102C2000CDE901790394FEF74DF950463146CDE9DF
:102C30000087CDE90294FEF745F94FF4C050CDE985
:102C40000009AAF5806031460297FEF73BF904B00F
:102C5000BDE8F08780B540F2183045F20041C2F27D
:102C60000000C4F2000148F2A06200234FF4804C3F
:102C7000C0F2010280E80E00C0E9033CC0E9053360
:102C8000C0E90733FEF746FA002808BF80BDBDE85B
:102C90008040FDF7EFBC000070B59CB042F60045E7
:102CA00040F26C30C4F201050021C2F200004F2254
:102CB0001691CDE914111191CDE90F11CDE90D1146
:102CC000CDE90B11CDE90911CDE90711CDE90511C8
:102CD000CDE90311CDE90111C0E90051C0E90212AB
:102CE000C0E904118161FFF707F9002818BFFDF75B
:102CF000C1FC4FF48050139040F26C30C2F20000DF
:102D000013A9FFF71FFA002818BFFDF7B3FC40F224
:102D10006C30C2F20000FFF799FC002818BFFDF7E5
:102D2000A9FC8020119040F26C300024C2F2000017
:102D300010A91094FFF7A2F8002818BFFDF79AFC1D
:102D40006020CDE9090440F26C30C2F2000009A90C
:102D50000022CDE90B44CDE90D440F94FFF778FB39
:102D6000002818BFFDF786FC40F26C30C2F200006C
:102D700009A90422FFF76CFB002818BFFDF77AFCB5
:102D800040F26C344FF40050C2F20004002606906A
:102D900001A920460596CDE90366CDE901660896AE
:102DA000FFF746F8002818BFFDF764FC20681A9664
:102DB000A84201D01CB070BD41F21800C4F202005C
:102DC000016841F004010160006818A900F00400E6
:102DD000179017984FF440701890022019901B908C
:102DE000A5F51050FEF76EF81CB070BD80B586B02A
:102DF0002020009040F2B4300021C2F200004FF0D9
:102E000080424FF6FF134FF0630C0591CDE903119B
:102E10000191C0E90023C0E9021C01618161FFF753
:102E20006BF8002818BFFDF725FC4FF48050029086
:102E300040F2B430C2F2000002A9FFF783F9002883
:102E400018BFFDF717FC40F2B430C2F2000069462B
:102E5000FFF714F8002818BFFDF70CFC06B080BD82
:102E600080B586B02020009040F2FC3040F2004255
:102E70000021C2F20000C4F2000241F6F6030591FF
:102E8000CDE903110191C0E90021C0E902130161FC
:102E90008161FFF731F8002818BFFDF7EBFB4FF415
:102EA0008050029040F2FC30C2F2000002A9FFF70D
:102EB00049F9002818BFFDF7DDFB40F2FC30C2F2F3
:102EC00000006946FEF7DAFF002818BFFDF7D2FBC5
:102ED00006B080BD80B586B02020009040F244400E
:102EE00040F600020021C2F20000C4F200023F23BB
:102EF0004CF24F3C0591CDE903110191C0E900234B
:102F0000C0E9021C01618161FEF7F6FF002818BFCD
:102F1000FDF7B0FB4FF48050029040F24440C2F203
:102F2000000002A9FFF70EF9002818BFFDF7A2FB69
:102F300040F24440C2F200006946FEF79FFF0028BD
:102F400018BFFDF797FB06B080BD0000FEE700004C
:102F5000FEE700007047000070470000FEF7B6BAB9
:102F60007047000080B540F2B430C2F20000FFF7B5
:102F7000B5F9BDE8804001F0F9B8000080B540F235
:102F8000FC30C2F20000FFF7A9F940F2BC00C2F227
:102F9000000001680131016080BD0000B0B540F261
:102FA0004440C2F20000FFF799F940F60004C4F271
:102FB000010420464FF48051FEF792F840F2B0052C
:102FC000C2F20005287020464FF40061FEF788F831
:102FD0002978687051EA000210D168684CF6CD413A
:102FE0000130CCF6CC41414349F699124FEA7101C8
:102FF000C1F699129142686006D9B0BDA1B188B3FB
:1030000000206860B0BD00BF40F24000C2F2000086
:103010000178B1FA81F14909017000206860BDE8CA
:10302000B04000F0A5BF00BF68684CF6CD4101304C
:10303000CCF6CC41414349F699124FEA7101C1F6F1
:10304000991291426860D8D840F24000C2F2000064
:10305000007801282ED1012000F0B4F9BDE8B0407D
:1030600000F086BF68684CF6CD410130CCF6CC410B
:10307000414349F699124FEA7101C1F69912914202
:10308000686088BFB0BD40F24000C2F20000007826
:10309000012807D1002000F095F9BDE8B04000F00C
:1030A00067BF00BF002000F04DF9BDE8B04000F060
:1030B0005FBF00BF012000F045F9BDE8B04000F05F
:1030C00057BF0000FEE700002DE9F04740F2B808C6
:1030D000C2F2000840F2E8244CF6CD4908F110078E
:1030E0000926C2F20004CCF6CC494FF4FA7A00BFAC
:1030F000D8F80800F1B200F08BFA2046FDF728FE60
:1031000020460A21FDF7F0FC2046FDF787FE204609
:10311000FDF706FC05462046FDF71AFE20460A216B
:10312000FDF7E2FC2046FDF779FE2046FDF7F8FBAF
:1031300005442046FDF70CFE20460A21FDF7D4FC8D
:103140002046FDF76BFE2046FDF7EAFB05442046CE
:10315000FDF7FEFD20460A21FDF7C6FC2046FDF7DF
:103160005DFE2046FDF7DCFB05442046FDF7F0FD43
:1031700020460A21FDF7B8FC2046FDF74FFE204609
:10318000FDF7CEFB05442046FDF7E2FD20460A216F
:10319000FDF7AAFC2046FDF741FE2046FDF7C0FBE7
:1031A00005442046FDF7D4FD20460A21FDF79CFC8E
:1031B0002046FDF733FE2046FDF7B2FB05442046CE
:1031C000FDF7C6FD20460A21FDF78EFC2046FDF7DF
:1031D00025FE2046FDF7A4FB05442046FDF7B8FD7B
:1031E00020460A21FDF780FC2046FDF717FE204609
:1031F000FDF796FB05442046FDF7AAFD20460A216F
:10320000FDF772FC2046FDF709FE2046FDF788FB1E
:1032100005442046FDF79CFD20460A21FDF764FC8D
:103220002046FDF7FBFD2046FDF77AFB05442046CE
:10323000FDF78EFD20460A21FDF756FC2046FDF7DE
:10324000EDFD2046FDF76CFB05442046FDF780FDB3
:1032500020460A21FDF748FC2046FDF7DFFD204609
:10326000FDF75EFB05442046FDF772FD20460A216E
:10327000FDF73AFC2046FDF7D1FD2046FDF750FB57
:1032800005442046FDF764FD20460A21FDF72CFC8D
:103290002046FDF7C3FD2046FDF742FB05442046CE
:1032A000FDF756FD20460A21FDF71EFC2046FDF7DE
:1032B000B5FD2046FDF734FB05442046FDF748FDEB
:1032C00020460A21FDF710FC2046FDF7A7FD204609
:1032D000FDF726FB05442046FDF73AFD20460A216E
:1032E000FDF702FC2046FDF799FD2046FDF718FB8F
:1032F00005442046FDF72CFD20460A21FDF7F4FB8E
:103300002046FDF78BFD2046FDF70AFB05442046CD
:10331000FDF71EFD20460A21FDF7E6FB2046FDF7DE
:103320007DFD2046FDF7FCFA2844A0FB09010AEBCD
:1033300011100136102E47F8040F7FF4D9AEBDE806
:10334000F087000040F20001C2F200010A78012873
:103350001AD1042A18D8501C01F1040C08709CE8FA
:103360000D10400048605000886058004A69C860ED
:103370004FEA4C00086150008A6948615000CA69F0
:10338000886150001BE000BFD0B9022A38BF7047E7
:10339000501E01F1040C08709CE80D1040084860B4
:1033A0005008886058084A69C8604FEA5C000861A4
:1033B00050088A6948615008CA6988615008C86124
:1033C0007047000040F24101C2F200010A78012872
:1033D00004D1642A02D20A2005E000BF28B9002ADD
:1033E00008BF7047F620104408707047012038214C
:1033F000FCF7EEBE2DE9F04105461420984616462E
:103400000F46FCF7F9FE044698B10898DDE906215D
:10341000E081FF20207441F200006281C4F20100CB
:1034200000222560A780E680A4F80880A181FDF72E
:1034300065FE2046BDE8F08198B0FEF755F80024FF
:103440000120CDE91344CDE91144129010201390CE
:103450004FF46010022517900EA8CDE90F44089490
:10346000CDE906440E95CDE91554FEF7EDFA28B1E5
:10347000EFF3108072B600BFFEE700BF0F20CDE96A
:1034800009054FF48060CDE90C0409A802210B94D2
:10349000FEF7D2F920B1EFF3108072B6FEE700BF5D
:1034A000022005904FF44040079005A8FEF73EF932
:1034B00020B1EFF3108072B6FEE700BFFFF770FB9C
:1034C000FFF742FBFFF792FCFFF7C4FBFFF7E4FBBB
:1034D000FFF7C6FCFFF7FEFCFFF788FF044601205C
:1034E00000278DF8120003A920460397ADF810704D
:1034F00000F0B2F800F058F940F22000C2F20000EB
:10350000018842888388C688008940F2B809C2F2DF
:103510000009B9F80050CDE9006040F60040C4F25F
:1035200001000295FFF766FF0121C9F8080000F0CD
:1035300063F840F2E820C2F20000FDF7A1F8642031
:10354000FDF7ACFCFFF7C0FD40F24440C2F20000C2
:10355000FEF7C0FD40F2FC30C2F20000FEF7BAFDFB
:1035600040F2B430C2F20000FEF7B4FD40F26C3518
:10357000C2F2000528460021FFF7E2F828460421A0
:10358000FFF7DEF800F0F4FC44F20008CA4609F147
:103590000C0640F20009C4F21C68C4F27A590025F6
:1035A000DAF804B0ABEB070001F066FD414601F02C
:1035B0000FFC07462846394601F06CFB05462046BD
:1035C00029463A4600F0DEFE2046314600F044F837
:1035D000204600F09DFC494601F0CAFD01F0EEFCDA
:1035E00042F63441C4F201014F2828BF4F20086041
:1035F00048605F46D4E70000002808BF7047D0F855
:1036000000C0838981F0010260461946FDF776BD4E
:1036100070B5F8B10446007C0D46884208BF70BD05
:103620002068A18805F00102FDF768FD2068E188A7
:10363000C5F34002FDF762FD20682189C5F38002D1
:10364000FDF75CFD20686189C5F3C002EE08FDF757
:1036500055FD267470BD00002DE9F0410C46097837
:10366000054681B12968E86901F0B2FB4FF07E514F
:1036700006464FF07E5701F083FB002818BF4FF03D
:103680007E56EE612F6060780027277088B16968E8
:10369000286A01F09DFB4FF07E5106464FF07E58A0
:1036A00001F06EFB002818BF4FF07E562E62C5F861
:1036B0000480A078677080B1A968686A01F088FB0F
:1036C0004FF07E5106464FF07E5701F059FB00281F
:1036D00018BF4FF07E566E62AF60E0780027A7708B
:1036E00088B1E968A86A01F073FB4FF07E51064685
:1036F0004FF07E5801F044FB002818BF4FF07E5673
:10370000AE62C5F80C802079E77080B12969E86A5B
:1037100001F05EFB4FF07E5106464FF07E5701F000
:103720002FFB002818BF4FF07E56EE622F616079A4
:103730000027277188B16969286B01F049FB4FF0B8
:103740007E5106464FF07E5801F01AFB002818BF44
:103750004FF07E562E63C5F81480A079677180B152
:10376000A969686B01F034FB4FF07E5106464FF0BB
:103770007E5701F005FB002818BF4FF07E566E63A0
:10378000AF610020A071BDE8F081000080B5024665
:10379000002840F2E800C2F200004FF4007118BFA8
:1037A000FF22FCF77FFD80BD2DE9F04784B0642047
:1037B000FDF774FB40F2183440F2A808AE20C2F2C4
:1037C0000004C2F200084FF000098DF80F004FF01E
:1037D000FF3701250DF10F06204678210022012335
:1037E00088F80090CDE900650297FDF74FFD4FF096
:1037F000200A20467821002201238DF80FA0CDE970
:1038000000650297FDF742FD204678210022012342
:103810008DF80F90CDE900650297FDF737FDB020D8
:103820008DF80F002046782100220123CDE90065A4
:103830000297FDF72BFDC8208DF80F002046782158
:1038400000220123CDE900650297FDF71FFD204608
:103850007821002201238DF80F90CDE900650297B1
:10386000FDF714FD10208DF80F002046782100226E
:103870000123CDE900650297FDF708FD40208DF892
:103880000F002046782100220123CDE90065029730
:10389000FDF7FCFC81208DF80F00204678210022E6
:1038A0000123CDE900650297FDF7F0FCFF208DF8BC
:1038B0000F002046782100220123CDE90065029700
:1038C000FDF7E4FCA1208DF80F00204678210022AE
:1038D0000123CDE900650297FDF7D8FCA6208DF8FD
:1038E0000F002046782100220123CDE900650297D0
:1038F000FDF7CCFCA8208DF80F002046782100228F
:103900000123CDE900650297FDF7C0FC1F208DF86B
:103910000F002046782100220123CDE9006502979F
:10392000FDF7B4FCA4208DF80F002046782100227A
:103930000123CDE900650297FDF7A8FCD3208DF89F
:103940000F002046782100220123CDE9006502976F
:10395000FDF79CFC20467821002201238DF80F9072
:10396000CDE900650297FDF791FCD5208DF80F0099
:103970002046782100220123CDE900650297FDF75A
:1039800085FCF0208DF80F002046782100220123CD
:10399000CDE900650297FDF779FCD9208DF80F007D
:1039A0002046782100220123CDE900650297FDF72A
:1039B0006DFC22208DF80F00204678210022012383
:1039C000CDE900650297FDF761FCDA208DF80F0064
:1039D0002046782100220123CDE900650297FDF7FA
:1039E00055FC02208DF80F0020467821002201238B
:1039F000CDE900650297FDF749FCDB208DF80F004B
:103A00002046782100220123CDE900650297FDF7C9
:103A10003DFC20467821002201238DF80FA0CDE93E
:103A200000650297FDF732FC8D208DF80F002046CF
:103A3000782100220123CDE900650297FDF726FCDD
:103A400014208DF80F002046782100220123CDE9B3
:103A500000650297FDF71AFCAF208DF80F00204695
:103A600078210022012388F80050CDE900650297F3
:103A7000FDF70CFC40F2E800C2F200004FF40071C8
:103A8000FCF718FC00F00EF8C8F8029004B0BDE88E
:103A9000F087000040F2A802C2F20002508091803C
:103AA000704700002DE9F04F85B040F21834B02087
:103AB000C2F200048DF811004FF0FF3501260DF120
:103AC000110A2046782100220123CDE900A60295A3
:103AD0000027FDF7DBFB8DF812700DF11207204671
:103AE000782100220123CDE900760295FDF7CEFB77
:103AF00010208DF813000DF11308204678210022C4
:103B00000123CDE900860295FDF7C0FB40F2E809EC
:103B10004FF0800BC2F20009204678214022012399
:103B2000CDE9009B0295FDF7B1FBB1208DF81100A6
:103B30002046782100220123CDE900A60295FDF759
:103B4000A5FB00208DF812002046782100220123D9
:103B5000CDE900760295FDF799FB10208DF8130052
:103B60002046782100220123CDE900860295FDF749
:103B70008DFB09F18000CDE9000B20467821402221
:103B800001230295FDF782FBB2208DF8110020463B
:103B9000782100220123CDE900A60295FDF776FBEE
:103BA00000208DF812002046782100220123CDE963
:103BB00000760295FDF76AFB10208DF81300204671
:103BC000782100220123CDE900860295FDF75EFBF6
:103BD00009F58070CDE9000B2046782140220123B1
:103BE0000295FDF753FBB3208DF811002046782194
:103BF00000220123CDE900A60295FDF747FB002036
:103C00008DF812002046782100220123CDE90076AC
:103C10000295FDF73BFB10208DF81300204678211C
:103C200000220123CDE900860295FDF72FFB09F55F
:103C3000C070CDE9000B2046782140220123029577
:103C4000FDF724FB05B0BDE8F08F00002DE9F04F33
:103C50008AB0A0F17F0717F15F0F13D340F2A80CD1
:103C6000C2F2000CBCF802405FFA81FE0EEB0405C4
:103C7000802D07D80F0ABCF804600894FCB2A7197D
:103C8000202F03D900200AB0BDE8F08F002C049249
:103C9000CDE9005018BFBEF1000F09D140F2A800D5
:103CA0000099C2F20000418001980AB0BDE8F08F8F
:103CB000019840F2E80B203860430390AEF1010018
:103CC000029001F003000590AEEB00000021C2F26B
:103CD000000B0990CDE9064609E000BF07EA08009D
:103CE0000BF80200069C0131079EA142D6D08A192A
:103CF000D7B2089C1F2FF5D803984FF0000A0F1871
:103D0000049830F817E002F00707012000FA07FCDA
:103D100002988CF0FF0803284FF4786000EA02193B
:103D200021D205980028DDD00AEB04020EFA0AF52C
:103D3000D6B2280402F0800740F18480002F40F0C2
:103D40008C804E441BF80670012B40F0828047EABD
:103D50000C0080E005EA08000BF8020009980AF15F
:103D6000040A5045DDD00EFA0AF204EB0A051704E6
:103D7000EEB205F0800709D597B94E441BF80670DE
:103D8000012B09D147EA0C0708E000BF47B94E44B0
:103D90001BF80670002BF5D007EA08070BF8067031
:103DA0006F1CFEB2500407F0800709D597B94E4446
:103DB0001BF80670012B09D147EA0C0008E000BF90
:103DC00047B94E441BF80670002BF5D007EA0800EF
:103DD0000BF80600A81C9704C6B200F0800709D5AE
:103DE00097B94E441BF80670012B09D147EA0C0025
:103DF00008E000BF47B94E441BF80670002BF5D011
:103E000007EA08000BF80600E81CD204C5B200F06F
:103E1000800209D5002AA1D105EB09021BF8025046
:103E2000012B7FF497AF09E0002A7FF497AF05EBF1
:103E300009021BF80250002B7FF48CAF45EA0C00FE
:103E40008AE700BF4FB94E441BF80670002B3FF4C1
:103E50007EAF07EA08000BF80600059801283FF43A
:103E600041AF501C6F04C6B200F0800708D58FB96F
:103E70004E441BF80670012B08D147EA0C0007E0FE
:103E800047B94E441BF80670002BF6D007EA08002D
:103E90000BF80600059802283FF424AF901CAF04ED
:103EA000C2B200F0800709D5002F7FF41BAF4A444F
:103EB0001BF80270012B7FF411AF08E0002F7FF494
:103EC00011AF4A441BF80270002B7FF407AF47EA9A
:103ED0000C0005E7F0B581B01C460378A3B1154688
:103EE0000E46471CD8B231462A462346FFF7AEFE9F
:103EF00017F8011C884204D117F8013B002BF1D1BF
:103F00000021084601B0F0BD0021084601B0F0BD17
:103F100070B5044604F12006C06962CE00F0BAFE16
:103F2000294600F0B7FE314600F0B4FEE16A00F029
:103F3000B1FE216B00F0AEFE616B00F0ABFE40F213
:103F40004101C2F2000109780446084601F094F8E4
:103F50000021C4F2C82100F03BFF0146204601F0D9
:103F600007F90021C4F2E00100F032FF70BD00004B
:103F700080B50020FFF70AFC05200A21FFF78AFD23
:103F800040F24000C2F200000078002800F0768085
:103F9000012840F0888040F24100C2F20000017820
:103FA000642900F2808050A0DFE811F074007D00E9
:103FB0007D007D007D007D007D007D007D007D0019
:103FC00066007D007D007D007D007D007D007D0020
:103FD0007D007D0082007D007D007D007D007D00F4
:103FE0007D007D007D007D0084007D007D007D00E2
:103FF0007D007D007D007D007D007D0086007D00D0
:104000007D007D007D007D007D007D007D007D00C8
:1040100088007D007D007D007D007D007D007D00AD
:104020007D007D008A007D007D007D007D007D009B
:104030007D007D007D007D008C007D007D007D0089
:104040007D007D007D007D007D007D008E007D0077
:104050007D007D007D007D007D007D007D007D0078
:1040600090007D007D007D007D007D007D007D0055
:104070007D007D00920000BF39A00BE040F20000FF
:10408000C2F2000000780138C0B204280BD811A198
:1040900051F8200040F23402C2F20002D2E90012CC
:1040A0000123FFF717FFBDE88040FFF7FBBC00BF0F
:1040B00028A0EFE724A0EDE720A0EBE71CA0E9E7AC
:1040C00018A0E7E714A0E5E710A0E3E70CA0E1E7FC
:1040D00008A0DFE7D8680008A8680008B4680008EE
:1040E000C0680008CC680008566F6C756D653A3082
:1040F00025000000566F6C756D653A313030250033
:10410000566F6C756D653A3930250000566F6C75C9
:104110006D653A3830250000566F6C756D653A371D
:1041200030250000566F6C756D653A3630250000FD
:10413000566F6C756D653A3530250000566F6C759D
:104140006D653A3430250000566F6C756D653A33F5
:1041500030250000566F6C756D653A3230250000D1
:10416000566F6C756D653A31302500002DE9F043CE
:1041700081B040F2C004C2F20004206841F200089D
:104180000921C4F20108FFF743FA40F2E825C2F220
:1041900000052846FCF7DCFD28460A21FCF7A4FCB4
:1041A0002846FCF7BDFB06462846FCF737FE40F2E2
:1041B000CC07C2F20007386840F2C4098642C2F256
:1041C000000909D940464FF40051FCF78FFF99F8D8
:1041D0000000013089F8000020680A21FFF718FA72
:1041E00040F2E825C2F200052846FCF7B1FD28465A
:1041F0000A21FCF779FC2846FCF792FB0646284684
:10420000FCF70CFE7868864209D940464FF400510D
:10421000FCF76CFF99F80100013089F80100206873
:104220000B21FFF7F5F940F2E825C2F20005284618
:10423000FCF78EFD28460A21FCF756FC2846FCF7C1
:104240006FFB06462846FCF7E9FDB868864209D9A7
:1042500040464FF40051FCF749FF99F80200013045
:1042600089F8020020680C21FFF7D2F940F2E82516
:10427000C2F200052846FCF76BFD28460A21FCF730
:1042800033FC2846FCF74CFB06462846FCF7C6FDE7
:10429000F868864209D940464FF40051FCF726FFE2
:1042A00099F80300013089F8030020680D21FFF719
:1042B000AFF940F2E825C2F200052846FCF748FDB8
:1042C00028460A21FCF710FC2846FCF729FB064685
:1042D0002846FCF7A3FD3869864209D940464FF4C9
:1042E0000051FCF703FF99F80400013089F804003D
:1042F00020680E21FFF78CF940F2E825C2F2000594
:104300002846FCF725FD28460A21FCF7EDFB284648
:10431000FCF706FB06462846FCF780FD78698642D6
:1043200009D940464FF40051FCF7E0FE99F805002A
:10433000013089F8050020680F21FFF769F940F284
:10434000E825C2F200052846FCF702FD28460A21AE
:10435000FCF7CAFB2846FCF7E3FA06462846FCF7BA
:104360005DFDB869864209D940464FF40051FCF71B
:10437000BDFE99F80600013089F8060001B0BDE8DD
:10438000F08300002DE9F04F81B0044600208846FC
:10439000C4F2FA30114600F06DF9216881460846F2
:1043A000494600F015FD40F2000AC2F2000A074635
:1043B000DAF80400276000F05FFE4FF08741054601
:1043C00000F0D6FE06464FF07E50294600F000FD74
:1043D0000146404600F018F9314600F0C9FE00F0F1
:1043E000EDFD46F2A84BC0F6000B5BF820103846F6
:1043F00000F0BEFE6168E0610846494600F0E8FC56
:104400000746DAF80800676000F036FE4FF0874193
:10441000054600F0ADFE06464FF07E50294600F0FE
:10442000D7FC0146404600F0EFF8314600F0A0FE10
:1044300000F0C4FD5BF82010384600F099FEA1683A
:1044400020620846494600F0C3FC0746DAF80C0033
:10445000A76000F011FE4FF08741054600F088FE8E
:1044600006464FF07E50294600F0B2FC0146404619
:1044700000F0CAF8314600F07BFE00F09FFD5BF8CB
:104480002010384600F074FEE16860620846494634
:1044900000F09EFC0746DAF81000E76000F0ECFD43
:1044A0004FF08741054600F063FE06464FF07E5010
:1044B000294600F08DFC0146404600F0A5F8314643
:1044C00000F056FE00F07AFD5BF82010384600F050
:1044D0004FFE2169A0620846494600F079FC074674
:1044E000DAF81400276100F0C7FD4FF08741054658
:1044F00000F03EFE06464FF07E50294600F068FC74
:104500000146404600F080F8314600F031FE00F0F0
:1045100055FD5BF82010384600F02AFE6169E06224
:104520000846494600F054FC0746DAF8180067616F
:1045300000F0A2FD4FF08741054600F019FE064647
:104540004FF07E50294600F043FC0146404600F003
:104550005BF8314600F00CFE00F030FD5BF82010F7
:10456000384600F005FEA16920630846494600F080
:104570002FFC0646DAF81C00A66100F07DFD4FF026
:104580008741054600F0F4FD07464FF07E5029466E
:1045900000F01EFC0146404600F036F8394600F0B7
:1045A000E7FD00F00BFD5BF82010304600F0E0FD69
:1045B000606301B0BDE8F08F4100080218BF04201D
:1045C0000A0E18BF40F001004FF07F4232EA0101AD
:1045D00008BF40F00200012808BF052070470021F5
:1045E0004FF07E5000F0F4BB00F054BB00210846B1
:1045F00000F0EEBB61214FF0E04000F0B2BF6FF081
:104600005E01080700F0ADBF70B5054620F0004020
:10461000C0F1FF400C46C00F05D124F00040C0F1AE
:10462000FF40C00F17D0284600F06AFE6FEAD05155
:1046300011F0FF0F08BF70BDE917B1EBE07F08BFB5
:1046400070BD014664F31E01BDE870400A46014694
:10465000104600F0D4BE4FF07F40B0EB450F18BFBE
:104660005FEA4400DFD10120FBF7A5FEBDE8704002
:10467000FFF7BCBF2DE9F04D0E460023A0F5000C5E
:104680004FF00071354684B002464FF07E5401EB86
:1046900045014FF07F48BCF1FE4F80F09F81B1F1A2
:1046A000804FC0F0DB81FE490144B1F5005F40F26C
:1046B000A78200F58021C90C01F00F07C1F3071193
:1046C0007F39A2EBC15501EB030B384600F0BCFC6F
:1046D0006FF0030100F045FF4FF07E5100F0DAFA71
:1046E00001460290284600F095FE01902846029966
:1046F00000F0D0FA00F5006A6FF30B0A0090514603
:10470000029800F087FE294600F0C4FA02904FF0AC
:104710007E50009900F05CFB01460090019800F08B
:1047200027FD00F500656FF30B052846029900F0A0
:104730001FFD02905146284600F01AFD019900F035
:104740005EFE029900F066FE009900F011FD014640
:104750000190284600F09EFA0146029000F008FD04
:104760008246D04900F004FDCF4900F093FA51464B
:1047700000F0FEFC82460021284600F0F2FE009088
:104780005146029800F0F4FC05460021019800F023
:10479000E8FE294600F07EFA82460146009800F0C5
:1047A00079FA00F500656FF30B052946009800F0D3
:1047B00031FE514600F06EFA8246BC49284600F0B0
:1047C000D7FC0090BA49504600F0D2FC8246B94965
:1047D000284600F0CDFC514600F05CFA82460146C6
:1047E000009800F057FA00F500656FF30B052946B5
:1047F000009800F00FFE514600F04CFA8246AE4899
:10480000784450F8371000EBC700019147684FEA31
:104810000B1000F019FC00903946504600F03AFAAF
:10482000294600F037FA019900F034FA009900F0B7
:1048300031FA00F5006B6FF30B0B5846009900F04E
:10484000E9FD019900F0E6FD294600F0E3FD394657
:1048500000F0E0FD514600F0D2FD06F5006782460B
:104860006FF30B073946304600F0D4FD002100906D
:1048700008464FF0000000F00C063946584600F09C
:1048800077FC054620F00040B0F18B4F0ADDB8EB15
:10489000400F07D34FF08B4060F31E052F464FF0BB
:1048A000000A1FE03846009900F0F4F9514600F084
:1048B0005FFC07465846009900F05AFC394600F064
:1048C000E9F982460146284600F0E4F900F5006760
:1048D0006FF30B073946284600F09CFD514600F067
:1048E000D9F9824631460C204FF000005146384637
:1048F00000F0D0F900F07EFB0646051100F0A4FBA5
:10490000394600F07CFD514600F0C4F907466B497A
:1049100000F02EFC6A4900F0BDF9394600F028FC91
:10492000684900F0B7F9394600F022FC01466648B4
:1049300006F00F06784450F8260000F019FC634991
:10494000794451F8261000F0A5F96149794451F8ED
:10495000261000F09FF905F17D01FC2908D22946B7
:1049600000F0FFFD04B02146BDE8F04D00F000BCB2
:1049700005F1BF01B1F5BF7F16D8294600F0F1FD62
:10498000214600F0F5FB0546B8EB450F1AD068004C
:104990000CD02846FFF710FE042808BFFFF72FFEB3
:1049A000284604B0BDE8F08D002D0BDA0220FBF79D
:1049B00002FDFFF724FE0146204604B061F31E000D
:1049C000BDE8F08D0220FBF7F6FCFFF713FE014671
:1049D000204604B061F31E00BDE8F08DB1F1804FB8
:1049E0003CD300BF00F1FF41B1F1FE4F21D200BF27
:1049F00020F00042C5F3C75110467F290DDB9729EF
:104A0000BFF651AEC1F196014FF0010C0CFA01F165
:104A1000A1F1010C1CEA050F07D00120FBF7CBFC2C
:104A200004B0BDE8F04DFFF7E1BD294218BF294CA5
:104A300039E641001CBF4FF08071B1EB400F09D93E
:104A40001B2100F08EFD02466FF01A0310F0004F9C
:104A5000CED128E6BCF1FE4F18D224E6B1F1007F9A
:104A60000ED336F0004105D006F0004141F0FC5570
:104A70002E46B7E7410018BFB8EB400F78D8B1E732
:104A8000B1F1807F38BFA5F50006ABD320F000411F
:104A90006FF0FF4C104C01EB0C03A3422FD31DE031
:104AA000001080C07EE24C3EABAAAA3E00B0384265
:104AB0003BAA3842D49AB8BBDC0D0000FC596337DE
:104AC000C9FF753A1872313DA80D00005C0D000059
:104AD000100D0000000080BFFFFF3F0025F00043E5
:104AE0009C44A4450BD3B0F17E5F18BF5FEA450C30
:104AF0003ED0B1F1FF4F98BFB3F1FF4F05D904B0DD
:104B00003146BDE8F04DFFF76FBDB0F1FF4F0FD05C
:104B1000C5F3C7517F2909DB972911DAC1F1960145
:104B2000012202FA01F14A1E2A4205D0002108E0C2
:104B300015F0004F55D128E0294218BF012100D1BE
:104B4000022110F5000F14D020B3B0F1004F27D090
:104B500010F1814F4ED04FF0FE41B1EB400F94BFAA
:104B600001200020012101EBE571884239D10CE0E0
:104B700040E015F0004F02D0012936D031E0012984
:104B800002BF3F4804B0BDE8F08D4FF0FF4004B0D5
:104B9000BDE8F08D15F000400ED104B0BDE8F08DF9
:104BA000B5F1FF4F1DD015F5000F05D015F0004FE2
:104BB00014D009B1012907D00220FBF7FCFB04B097
:104BC000BDE8F04DFFF70BBD0220FBF7F4FBFFF74C
:104BD00006FD04B080F00040BDE8F08D09B1012968
:104BE00003D004B00020BDE8F08D04B04FF00040C9
:104BF000BDE8F08D04B04FF07E50BDE8F08D00BFF1
:104C00004FF07E5100F006FC05466FF0010100F008
:104C1000A8FC1C4900F0F3FB294600F0A9FA4FF06C
:104C20007C5100F0ECFB07462946084600F0A0FA4C
:104C300080F00040394600F09BFA8246124928462F
:104C400000F096FA07461149504600F091FA824664
:104C50000F49284600F08CFA514600F01BF8054633
:104C60000146384600F016F800F5006B6FF30B0BA9
:104C70005946384600F0CEFB294600F00BF8ECE52B
:104C8000000080FFABAAAA3E00B0B8413BAAB841E1
:104C9000D49A38BB90EA010F48BF81F0004100F17F
:104CA000C083421A3CBF801A89184FEAD052A2EB47
:104CB000D1534FF07F4C1CEA410F18BF9CEA026FA2
:104CC00000F03B804FF0004C4CEA00204CEA012100
:104CD00021FA03FC10EB0C0C1ED202F1FF325FEA4A
:104CE0001C2040EBC25038BF70471CF07F0F4FEACA
:104CF000400C18BFBCF17F4F38BF7047C3F1200391
:104D0000994008BF20F00100BCF17F4F38BF7047C9
:104D1000A0F1C04000F06EBB4FEA3C00000A40EB3F
:104D2000C25028BF1CF0FF0F4FEA400CE6D018BF5E
:104D3000BCF17F4F38BF7047EAE79CEA026F05D0AD
:104D400010EA5C0F08BF00F00040704710B500F09B
:104D500090FA00BF64FBBE3E014800F0D0BB00BF2C
:104D60000000C07F10B500F0F5F80CBF0120002056
:104D700010BD10B500F0EEF814BF0120002010BDEA
:104D800010B500F08DF98CBF0120002010BD10B5CA
:104D900000F086F92CBF0120002010BD10B500F0F6
:104DA000B3F994BF0120002010BD10B500F0ACF99C
:104DB00034BF0120002010BD401058BFC0F140405A
:104DC000491058BFC1F140418142EFF30080704764
:104DD0004FF47F0C1CEAD0121EBF1CEAD11392EADA
:104DE0000C0F93EA0C0F00F0858090EA010F48BF8A
:104DF00042F4807240F4000C41F400002CF07F413A
:104E000020F07F4000B5A2EB030281420FF2081CA4
:104E1000ACEB504E9EF800E0C0F100004FEA4E0EA1
:104E200000FB0EFC38BF49004FEA2C1C0CFB0EF3B4
:104E30004FEACE1E0EEB635E4FEA112C0EFB0CFC0C
:104E40004FEAC1214FEA1C5300FB031102F5FA029D
:104E50004FEA112C0EFB0CFC4FEA01314FEADC4CFF
:104E600000FB0C1142EB2242C14228BF09184CEB57
:104E700003335DF804EB10EB410143EBC250B2F594
:104E80007C0F38BF704729D512F0F00F1CBF00F11E
:104E9000C04000F00040704700818283848586878F
:104EA00088898B8C8D8E8F919293959697999A9CE9
:104EB0009D9FA0A2A3A5A7A8AAACAEB0B2B3B5B758
:104EC000B9BCBEC0C2C5C7C9CCCED1D4D7D9DCDF2E
:104ED000E2E6E9ECF0F3F7FAFE0000004FEA400CDE
:104EE0000CF1807CBCF17E4F28BF7047B0F1C04010
:104EF00000F080BA0CEAD11390EA010F48BF42F4E7
:104F00008072624538BF634507D213F47F0F16D015
:104F100080EA010000F00040704710B500F0A9F9E8
:104F2000097EFC3E00F005B880EA010000F0004078
:104F3000704780EA010000F0004000F05BBA12F414
:104F40007F0F04BF0248704780EA010000F052BAA8
:104F50000000C07F50EA010C00F113801CF5000F27
:104F600058BFBCF5000F01D48842704707D710F531
:104F7000000F58BF11F5000F15D4884270478942C1
:104F800070471CF5000F04D5BCF5000FF7D5814222
:104F900070474FF0807C1CEB400F38BF1CEB410F7B
:104FA00001D28142704710B500F063F992244900A4
:104FB0004FF000504FF08051FFF7FEBE41000B0E46
:104FC000D3F19E0208D950F400034FEA032323FAD9
:104FD00002F048BF4042704710B500F04AF900BFE8
:104FE00049922480002070476FF0004282EA20003E
:104FF0007047000041000B0ED3F19E0216D950F409
:1050000000034FEA032333FA02FC0AD363FA02F3E4
:1050100083EA0C030CF1010C93F0004F08BF2CF055
:10502000010C5CEA100028BF4042704710B500F048
:1050300020F900BF49922480002070476FF00042A1
:1050400082EA20007047000010F0004148BF404253
:10505000B0FA80F310FA03F2C3F19D030BD051EACA
:10506000C35101EB1220530638BF704700F1010015
:1050700008BF20F001007047B0FA80F310FA03F285
:10508000C3F19D030AD0D90501EB1220530638BFA6
:10509000704700F1010008BF20F0010070470000D8
:1050A00050EA010C00F113801CF5000F58BFBCF54D
:1050B000000F01D48842704707D710F5000F58BF82
:1050C00011F5000F15D488427047894270471CF5CE
:1050D000000F04D5BCF5000FF7D5814270474FF0A3
:1050E000807C1CEB400F38BF1CEB410F01D281428A
:1050F000704710B500F0BDF8922449004FF0805081
:105100004FF00051FFF758BE50EA010C00F1138038
:105110001CF5000F58BFBCF5000F01D48842704742
:1051200007D710F5000F58BF11F5000F15D48842AE
:105130007047894270471CF5000F04D5BCF5000F7D
:10514000F7D5814270474FF0807C1CEB400F38BF91
:105150001CEB410F01D28142704710B500F089F875
:10516000922449004FF000504FF08051FFF724BEC9
:105170004FF47F0C1CEAD0121EBF1CEAD11392EA36
:105180000C0F93EA0C0F00F0478090EA010F48BF24
:1051900042F480724FF0004C4CEA00204CEA0121AE
:1051A00002EB0302A0FB0113A2F50002002918BFC5
:1051B00043F001035B0028BF4FEA330342EB224276
:1051C0005FEA132C4CEBC2502EBFBCEB436FB2F521
:1051D0007C0F70474FEA036CBCF1004F08BF20F012
:1051E0000100B2F57C0F38BF70470BD582F0FF028B
:1051F00012F5803FC8BF704700F1C040D8BF00F033
:105200000040704700F5000C5FEA4C0C48BF704747
:10521000B0F1C04000F0EEB80CEAD11390EA010FF3
:1052200048BF42F48072624538BF634504D280EAC9
:10523000010000F00040704710B500F01AF800BF00
:105240008900013E00F007B800F009B85FEA410CA0
:105250005FEA1C6C08D080EA010000F0CBB85FEA7E
:10526000400C5FEA1C6CF6D14FF00040A0F58000C6
:1052700070470EF1020E2EF0030E5EF8044B24422E
:1052800004D44FEA4102B2F17F4F11D84FEA4003F4
:10529000B3F17F4F0CD80ED14FEAD07C0CEB4C0C05
:1052A0000CF1020CB2F17F4F08BF4CEBD17C04E053
:1052B0004FF0080C01E04FEAD17C0CEB4C0324FAD0
:1052C00003F404F00704B4F1040C06D20EEB840CD2
:1052D000BDE810404CF0010C6047DFE80CF0070817
:1052E00002024FF00040A0F5800010BD08464200C9
:1052F00018BFD2F1807288BF00F0004010BD0000DE
:105300004FF07F4C3CEA410318BF3CEA400200F0FA
:1053100062804FF47F0C0CEAD11310F0004F18BFDD
:1053200043F005031CEAD01218BF13EA0C0F00F07B
:1053300057804FF0004C4CEA00204CEA0121A3F5C5
:1053400080339A4210DD23F00203B0F1004F06D300
:1053500043F00203401ABCBF404283F001034FEA0E
:105360004000A2F58032ECE74FEA224CBCEB234F21
:1053700008DB884206D31CD0A0EB4100C0F100003E
:1053800083F0010340001DD217D40DD0B0FA80FC89
:105390000CF1010C00FA0CF0A2EB0C42D2F1000C63
:1053A00012DB4FEAC37070474FEA437000F00040D1
:1053B000704713F0020FE5D0DEE74FEA4000B2F588
:1053C0008032EBDD002AE9DD4FEAC21242EA5020CA
:1053D00040EAC370704710B5FFF74BFFEDFFFF3E8B
:1053E0001CEAD11F02D000F000407047004870470F
:1053F0000000C07FFF2141EAD050C005704780F017
:10540000004090EA010F7FF54CAC81F0004100F0C4
:1054100008B8000090EA010F48BF81F000413FF555
:1054200040AC421A04D882F00042A0EB02001144C2
:105430004FEAD052A2EBD1534FF07F4C1CEA410F00
:1054400018BF9CEA026F4AD04FF0004C4CEA002093
:105450004CEA012121FA03FCB0EB0C0C0FD412F042
:10546000FE0F36D05FEA4C001DD5001240EBC25053
:1054700038BF70471CF03F0F18BF70470BE05FEA62
:105480001C20A2F1010240EBC25038BF70471CF053
:105490007F0F18BF7047C3F12003994014BF401E0F
:1054A00020F0010070474FEA1223800808BF7047C0
:1054B000B0FA80FCA2EB0C02CCF1280C60FA0CF0E4
:1054C00093EA122F04BF00EBC25070474FEAC3703B
:1054D0007047130A5FEADC1008BF7047F6E79CEAE2
:1054E000026F04D010EA5C0F08BF0020704710B5AF
:1054F000FFF7BFFE40DFF63E81F0004070470CF042
:105500000F03092B08BF082000F051800A2B0BD095
:10551000082B18BF704708BF1CF0400F0AD04FF08F
:1055200000004FF0000170471CF0400F18BF4FF013
:10553000004070471CF0100F08D000F07F4220F0B0
:10554000704342EAD3014FEA4370704700F0604075
:1055500021F07F4242EA000201F07F4040EA72708F
:1055600070474FF0FF0212EAD0521CBF92F0FF03C7
:105570008B42C2BFD14200EBC1507047002A0AD013
:10558000002B0BD000F000400029A4BF40F0FE40EB
:1055900040F40000704700F00040704743024FF0B5
:1055A0000B0C18BF4CF0806C7FF4D6AB70471CF42A
:1055B000801F11D01CF4E02F03D06FEACC314900DA
:1055C00070474FF04050EFF3008222F0704242EA01
:1055D000000282F3008870474FF00000704700001F
:1055E00000000000000000000000B33FB2BE7D3AA2
:1055F00000002E40DFCF513800007E40BF51FABA84
:1056000000E0A44019DAC3BA00E0C840C2ED8AB98C
:105610000040EB40CD1F2CBA001006412AFFFABA19
:1056200000C01541DFCFD13700D024419A97703A9E
:105630000050334189478E3600404141E75B9D3839
:1056400000B04E41C00A98B900A05B41558F943A12
:1056500000306841DA92C0BA0040744162B3C63A81
:105660000000803F00A0853F00908B3F00C0913F2D
:105670000030983F00F09E3F00F0A53F0050AD3F46
:105680000000B53F0000BD3F0060C53F0020CE3F99
:105690000040D73F00C0E03F00C0EA3F0020F53F98
:1056A000000000007D36AC397D3C3839EBDCF43845
:1056B000320A7E39124C26399B6AED39A4EE8339C1
:1056C0007F661E39F6398A392B426539A482113931
:1056D0005B991F39C3EECD39DDE7C637A5A22F3957
:1056E0000000803FC3AA853FC2958B3FD3C3913F43
:1056F000F037983F32F59E3FD7FEA53F3F58AD3F6C
:10570000F304B53FA408BD3F2A67C53F8C24CE3FB4
:10571000FD44D73FDFCCE03FC7C0EA3F7D25F53FE2
:10572000010200000000000000000102030406075F
:10573000080900000000010203040000000000004E
:105740000000000000000000000000000000000059
:105750000000000000000000000000000000000049
:10576000000C000C000C000C000C000C000C000CD9
:10577000000C000C000C0000000C000C00000000ED
:1057800000000000001B001B001B001B001B000092
:105790000000000000000000000000000000000009
:1057A0000000000000000000801980198019801995
:1057B000C07FC07F80190033C07FC07F00330033BB
:1057C000003300330000000000000000001E003F16
:1057D000807580650074003C001E000780058065B0
:1057E00080658075003F001E00040004000000007A
:1057F000007000D840D8C0D880D900730006000CD3
:10580000801BC036C066C046C00680030000000092
:1058100000000000001E003F003300330033001E74
:10582000000CC03CC066806380618063C03E801C09
:105830000000000000000000000C000C000C000C38
:10584000000C00000000000000000000000000004C
:1058500000000000000000000000800000010003C4
:10586000000600060004000C000C000C000C000CEC
:10587000000C000400060006000300018000002068
:1058800000100018000C000C0004000600060006C2
:105890000006000600060004000C000C00180010B2
:1058A00000200000000C002D003F001E003300000F
:1058B00000000000000000000000000000000000E8
:1058C000000000000000000000000000000C000CC0
:1058D000000C000CC0FFC0FF000C000C000C000C02
:1058E00000000000000000000000000000000000B8
:1058F00000000000000000000000000000000000A8
:1059000000000000000C000C00040004000800006F
:105910000000000000000000000000000000000087
:10592000001E001E0000000000000000000000003B
:105930000000000000000000000000000000000067
:10594000000000000000000000000000000C000C3F
:105950000000000000000000000300030003000638
:10596000000600060006000C000C000C000C0018DD
:10597000001800180000000000000000001E003F9A
:105980000033806180618061806D806D80618061A5
:1059900080610033003F001E000000000000000096
:1059A0000006000E001E0036002600060006000657
:1059B00000060006000600060006000600000000C3
:1059C00000000000001E003F807380618061800144
:1059D00000030006000C001800300060807F807F0C
:1059E0000000000000000000001C003E0063006397
:1059F0000003000E000E00038001800180618073AF
:105A0000003F001E00000000000000000006000E25
:105A1000000E001E001E0016003600360066807F55
:105A2000807F000600060006000000000000000065
:105A3000007F007F006000600060006E007F806378
:105A40008001800180618073003F001E0000000023
:105A500000000000001E003F803380610060006E87
:105A6000007F80738061806180618033003F001E11
:105A70000000000000000000807F807F80010003A4
:105A8000000300060006000C000C000C00080018C3
:105A9000001800180000000000000000001E003F79
:105AA0008063806180610021001E003F8061806111
:105AB00080618061003F001E0000000000000000C7
:105AC000001E003F00738061806180618073803FB1
:105AD000801D800180610073003F001E00000000F7
